:020000040800F2
:10C20000F019012081C4000893C4000869070208DE
:10C2100097C4000899C400089BC4000800000000EF
:10C220000000000000000000000000009DC40008A5
:10C230009FC4000800000000A1C40008F97A0308A8
:10C24000A5C40008A5C40008A5C40008A5C400082A
:10C25000A5C40008A5C4000801870108AD8701082E
:10C2600009880108A5C4000871880108A5C4000850
:10C27000A5C40008A5C40008A5C40008A5C40008FA
:10C28000A5C40008A5C40008A5C40008A5C40008EA
:10C29000A5C40008A5C40008A5C40008A5C40008DA
:10C2A000A5C40008A5C40008A5C40008A5C40008CA
:10C2B0007D840308A5C40008A5C40008A5C400081F
:10C2C000A5C40008A5C40008A5C40008A5C40008AA
:10C2D000A5C40008699F0308A5C40008A5C40008F8
:10C2E000A5C40008A5C40008A5C40008A5C400088A
:10C2F000A5C40008A5C40008A5C40008A5C400087A
:10C30000A5C40008A5C40008A5C40008A5C4000869
:10C31000A5C40008A5C40008A5C40008C18403087A
:10C32000A5C40008A5C40008A5C40008A5C4000849
:10C33000A5C40008A5C40008A5C40008A5C4000839
:10C34000A5C40008A5C40008A5C40008A5C4000829
:10C35000A5C40008A5C40008A5C40008A5C4000819
:10C36000A5C40008A5C40008A5C40008A5C4000809
:10C37000A5C40008A5C40008A5C40008A5C40008F9
:10C38000A5C40008A5C4000800F002F800F064F895
:10C390000AA090E8000C82448344AAF10107DA4520
:10C3A00001D100F059F8AFF2090EBAE80F0013F00E
:10C3B000010F18BFFB1A43F001031847B8C303006D
:10C3C000D8C3030010F8013B0A4413F0030408BF6C
:10C3D00010F8014B1D1108BF10F8015B641E05D059
:10C3E00010F8016B641E01F8016BF9D1002D15D016
:10C3F00010F8014B03F00C030C2BA1EB04040ABF53
:10C4000010F8013BA4EB8314A4EB032405F1010312
:10C4100014F8016B5B1E01F8016BF9D5914238BF2E
:10C4200010F8013BD1D370470023002400250026DB
:10C43000103A28BF78C1FBD8520728BF30C148BF87
:10C440000B6070471FB52FF03DF89DE8030000F02A
:10C4500041FA1FBD10B510BD00F098FA1146FFF764
:10C46000F1FF2EF071FE00F0B6FA03B4FFF7F2FF11
:10C4700003BC00F0E3FA0000EFF30880704700000F
:10C480000C48016841F4700101600B4880470B487B
:10C490000047FEE7FEE7FEE7FEE7FEE7FEE7FEE712
:10C4A000FEE7FEE7FEE7000005480649064A074B9F
:10C4B0007047000088ED00E001B4030889C300085C
:10C4C000F0FE0020F0190120F0090120F009012000
:10C4D00070B5064600F0E2F9056806F10B0020F0A1
:10C4E0000704B4429CBF002070BD2B466A68BAB1F5
:10C4F0001068A04210D304F1080188423CBF506884
:10C50000586007D35168101941601168091B016018
:10C5100058601460101D70BD13465268002AE7D1A0
:10C520002146284600F0C2F90028DED170BD70B562
:10C530000446051F00F0B2F90068002C14BF4468DF
:10C5400070BD002C18BFA54284BF20466468F8D88F
:10C5500001680A18AA4218BF456003D12A68054637
:10C560001144016028684119A1421CBF6C6070BD74
:10C570006168696021680844286070BD53EA020C54
:10C5800000F069802DE9F04B4FF00006002B1FBF33
:10C59000B3FA83F503FA05F424FA05F65E4012BFF8
:10C5A0001643B2FA82F502FA05F4C5F120051EBF62
:10C5B00022FA05FC44EA0C04203556EA044C4FEA02
:10C5C000144418BF641C4FF000084FF0000990425B
:10C5D00071EB030C39D3002919BFB1FA81F701FAC5
:10C5E00007F6B0FA80F700FA07F6C7F120071EBF7A
:10C5F00020FA07FC46EA0C062037B6FBF4FCA7EB52
:10C600000507103F07F01F0BCBF120060CFA0BFBC0
:10C610002CFA06F644BFB3460026202FA4BF5E4680
:10C620004FF0000B5BEA060C08BF4FF0010B19EB53
:10C630000B09ABFB027C48EB0608C01B06FB02CCD7
:10C640000BFB03CC71EB0C01C1E70B4602464146E4
:10C650004846BDE8F08B13B54FF000004FF00001E5
:10C66000AFF30080BDE81C407047B2F120030AD54B
:10C67000C2F1200301FA02F120FA03F300FA02F0FA
:10C6800041EA0301704700FA03F14FF000007047E0
:10C6900010B54C1084EA530404D54042C1F10001A6
:10C6A00038BF491E1B4204D55242C3F1000338BFB4
:10C6B0005B1EFFF763FF14F0804F04D04042C1F1CE
:10C6C000000138BF491E14F0004F04D05242C3F19C
:10C6D000000338BF5B1E10BD10B5431C02E010F80C
:10C6E000011B71B18107FAD14FF0013202C88C1AD7
:10C6F0008C4314EAC211F9D0C01A0A0603D0C01E36
:10C7000010BDC01A10BD0A0401D0801E10BD090260
:10C71000FCD0401E10BD032A40F2308010F0030C04
:10C7200000F0158011F8013BBCF1020F624498BF84
:10C7300011F801CB00F8013B38BF11F8013BA2F121
:10C74000040298BF00F801CB38BF00F8013B11F09C
:10C75000030300F02580083AC0F0088051F8043B3C
:10C76000083A51F804CBA0E80810F5E7121D5CBFA9
:10C7700051F8043B40F8043BAFF30080D20724BFDC
:10C7800011F8013B11F801CB48BF11F8012B24BF70
:10C7900000F8013B00F801CB48BF00F8012B7047BF
:10C7A00010B5203AC0F00B80B1E81850203AA0E84C
:10C7B0001850B1E81850A0E81850BFF4F5AF5FEA80
:10C7C000027C24BFB1E81850A0E8185044BF18C933
:10C7D00018C0BDE810405FEA827C24BF51F8043BDA
:10C7E00040F8043B08BF7047D20728BF31F8023B2E
:10C7F00048BF11F8012B28BF20F8023B48BF00F8C2
:10C80000012B70474FF000020429C0F0128010F095
:10C81000030C00F01B80CCF1040CBCF1020F18BF1C
:10C8200000F8012BA8BF20F8022BA1EB0C0100F0AF
:10C830000DB85FEAC17C24BF00F8012B00F8012B82
:10C8400048BF00F8012B70474FF0000200B51346B7
:10C8500094469646203922BFA0E80C50A0E80C5020
:10C86000B1F12001BFF4F7AF090728BFA0E80C50D1
:10C8700048BF0CC05DF804EB890028BF40F8042BCA
:10C8800008BF704748BF20F8022B11F0804F18BF37
:10C8900000F8012B70477047704770470048704799
:10C8A00094FE0020704770477047704738B50446C3
:10C8B0000A4600206946AFF30080002808BF38BD53
:10C8C00002460099204600F03FF8012038BD0120C3
:10C8D00000F054B8F8B5AFF30080054600200C46D0
:10C8E000102000BF0646A819A0420DD9324669465D
:10C8F0000020AFF30080070008BF00F03FF8009869
:10C90000A04218BF0546C419FFF7C8FF05600746D7
:10C91000F01D20F007004619284600F00AF8B4423E
:10C9200008BFF8BDA21B31463868BDE8F84000F0EA
:10C930000BB800210160C0E901107047102070475A
:10C94000004870478CFE0020034640688C46002853
:10C9500018BF814284BF03464068F8D8186818445D
:10C96000884207D00CF1030020F00700001D411A97
:10C97000521A0146081D0A60FFF7D9BD10B500F034
:10C9800035F8BDE8104000F02CB870477546FFF749
:10C99000D7FFAE4605006946534620F0070085469E
:10C9A00018B020B5FFF780FDBDE820404FF000062D
:10C9B0004FF000074FF000084FF0000B21F0070187
:10C9C000AC46ACE8C009ACE8C009ACE8C009ACE8CA
:10C9D000C0098D4670470446AFF300802046FFF73C
:10C9E00044FD002801D000F029B8704710B5012897
:10C9F00005D0002103A000F027F8012010BD09A1F7
:10CA0000F8E7000053494752544D454D3A204F75C1
:10CA100074206F662068656170206D656D6F727936
:10CA2000000000003A2048656170206D656D6F72EE
:10CA30007920636F72727570746564000149182003
:10CA4000ABBEFEE72600020070B505460C460A2084
:10CA500000E06D1C00F011F835B128780028F8D1FD
:10CA600002E0641C00F009F814B120780028F8D125
:10CA7000BDE870400A20AFF3008008B569468DF824
:10CA800000000320ABBE08BD0048704790FE0020A8
:10CA9000C943016070470029816814BF41F001015A
:10CAA00021F001018160704709490A68094B02EAD7
:10CAB0000302D0E9003C43EA0C03D0E902C04CEA8F
:10CAC000000043EA000040EA0200086070470000EE
:10CAD00004230140E030FCFF0029816814BF41F4C9
:10CAE000807121F48071816070470029816814BFD2
:10CAF00041F4007121F400718160704710B501218B
:10CB0000080226F00BFEBDE8104000214FF48070B3
:10CB100026F004BE0029816814BF41F4806121F42D
:10CB20008061816070470246002012680A4218BF87
:10CB30000120704710B4426891F804C022F480725A
:10CB400022F040720B6842EA0C221A43426082686B
:10CB50000C4B4C791A40D1E903C343EA0C03D1F8DA
:10CB600008C04CEA440C43EA0C031A438260C26AD0
:10CB7000097D22F47002491EC9B242EA0151C16224
:10CB800010BC7047FDF7FFC005490028D1F8040329
:10CB900014BF40F4005020F40050C1F80403704763
:10CBA0000020014030B4072409290DD9C568A1F13E
:10CBB0000A0C0CEB4C0C04FA0CF425EA040403FAFE
:10CBC0000CF32343C3600AE0056901EB410C04FA4E
:10CBD0000CF425EA040403FA0CF3234303611F2336
:10CBE000072A0CD2D0F834C0521E02EB82029340C6
:10CBF0002CEA030391401943416330BC70470D2A6E
:10CC00000CD2D0F830C0D21F02EB820293402CEA43
:10CC1000030391401943016330BC7047D0F82CC026
:10CC20000D3A02EB820293402CEA03039140194330
:10CC3000C16230BC7047816841F0804181607047BB
:10CC40002DE9F04F89460024EF4D014685B0601E66
:10CC500028834FF0010B284685F810B0007DA246CE
:10CC600011F0100F1CBF4FF0010A20F010000DD082
:10CC7000287501F00F08000608EB1050C7B217F036
:10CC8000800F23D017F0080F0DD01FE010F0100F09
:10CC90001BBF01F00F02012A00F00F0005B018BF02
:10CCA000BDE8F08FE4E7287A00281ABFA87A0028A8
:10CCB00008200AD002A804F0E9F8BDF808100829F5
:10CCC00004D0002808BF072000D1A8730026442FF5
:10CCD0001DD008DC122F18BF222F0DD0242F10D00A
:10CCE000422F09D020E0482F11D0822F04D0842F6A
:10CCF00018BF882F0BD017E0022007F06DFA04460A
:10CD000009E0C249881E00F07BFA040004D1E87CE7
:10CD100007F062FA04463CB1287D022873D004284B
:10CD200072D0082871D0B1E06E85312F2DD015DC7E
:10CD3000212F6BD009DCA7F11100082823D2DFE8EE
:10CD400000F0A92624C5222222C5222F71D0232F2C
:10CD500070D0242F32D0282F6CD014E0812F7DD0BA
:10CD600009DCA7F1410008280DD2DFE800F080714E
:10CD7000AF930C0C0C41822F63D0832F5AD0842F99
:10CD80005AD0882F55D01224C0E01324BEE01BF0E7
:10CD900063FE040008D12E7400F072FB040004BF8F
:10CDA0009B4880F800B043D0FF2C72D0287C00282C
:10CDB00008BF00F06FFB1BF073FEA7E02AF032FA09
:10CDC000040005D12E74934800F040FB040009D004
:10CDD000FF2C5ED0287C002808BF00F059FB2AF009
:10CDE0006BFB93E0E88E13F09BFC85F804B08DE0BC
:10CDF000687B10B16C8C54B111E0E87938B1C8206F
:10CE00006883AE83C3E076E071E061E039E02E74C0
:10CE100000F038FB040008BF85F803B076D0FF2C83
:10CE200037D0287C002808BF00F036FB6E71EE700A
:10CE30006CE02FE04AE011E000F02EFB6E71EE7026
:10CE40000AE000F029FB6E71EE7004002E741DD113
:10CE500000F01EFB2AF030FB2E7457E000F01CFBA4
:10CE60006E71EE7004002E7408BF41270ED100F0E1
:10CE70000FFB04462AF020FB2E74002C08BF21274C
:10CE800004D11BF00DFE00F005FB0446FF2C7ED004
:10CE90003CE07CE0BAF1000F1CBF384600F0AEF970
:10CEA000687B58B9287D10F00C0F07D0E88D00285A
:10CEB00018BF022004D000BF13F08FFBFE2425E032
:10CEC000A88D002818BF0320F6D1F7E711241DE034
:10CED00002A803F0DBFFBDF80810082903D00028E2
:10CEE00004BF0720A87300F0D7FA6E71EE7000F04F
:10CEF000CFFA2AF0E1FA162C1CBF02202875C5D102
:10CF00001BF0CEFD00F0C6FA85F814B0287D4FF670
:10CF1000FF7700F00F01414562D054EA090111D0BA
:10CF200048EA000010F0080F0CD0E87818B100F0C3
:10CF3000B3FA6E71EE70E88D002818BF022040D061
:10CF400013F032FBD4B3287D082804BF04202875D1
:10CF5000C0B240F0100028756E74ADF80440BC42B9
:10CF600005D001224FF49A7101A804F0BDF8287D84
:10CF7000ADF8040001224FF4987101A804F0B4F850
:10CF80004FEA040003F0E0FF05B0BDE8F08F85F83C
:10CF900011B06F85122F14BF132F4FF4FA600ED00B
:10CFA000242F17BF482F42F22830C820288306D0EC
:10CFB00080B23238288305B0BDE8F08F07E02883BF
:10CFC000F6E7A88D002818BF0320B9D1BAE7B9F158
:10CFD000000F1CBF4C4648F0100885F81480BBE7D2
:10CFE0006E74ADF8006001224FF49A71684604F047
:10CFF0007BF8287DADF8000001224FF49871684657
:10D0000004F072F80020BDE74C2200207A220020B4
:10D010006E150020822200202DE9F843DFF8D08130
:10D0200098F81100002808BFBDE8F8830025704972
:10D03000B8F818C02C46087CCB794A79498DBCF1E8
:10D04000000F31D001264746122918BF132964D09A
:10D0500024297CD0482918BFBDE8F883002808BFE0
:10D06000BDE8F883002B73D0B7F91A000028D8BFA9
:10D07000BDE8F883B7F91C108842C8BFBDE8F88343
:10D080007C83BC8300F0FEF9002804BFFE700826F4
:10D0900062D0FF2808BFBDE8F88300BF00F0FCF9AC
:10D0A0007C71FC70BDE8F883C1F30716122918BF24
:10D0B000132904D0242910D0482919D045E000288C
:10D0C00008BF00F0E7F91BF0EBFC98F80D0010B179
:10D0D000B8F8225039E0012537E0002808BF00F0F9
:10D0E000D7F92AF0E9F998F80D000028F3D0EFE716
:10D0F0004BB198F80810002908BF2D2504D0002A4C
:10D1000018BF1A2500D11B25002808BF00F0C4F95C
:10D1100088F8054088F8034017E0002808BFBDE8FC
:10D12000F8833C7400F0ACF948B1FF2808BFBDE8B3
:10D13000F88300F0AFF9BDE8F8431BF0B1BC2D480F
:10D14000067097F82A0000F00F06002E01E02AE092
:10D150003EE008BFBDE8F88388F81140002D18BFF5
:10D1600046F01006ADF8005098F81400B04218BF11
:10D1700088F81460A5F57F41FF3905D001224FF4EE
:10D180009A71684603F0B0FF98F81400ADF80000FB
:10D1900001224FF49871684603F0A6FF2846BDE8C7
:10D1A000F84303F0D1BE00283FF47CAF3C74124832
:10D1B00000F04CF9002804BF3E710426CCD0FF28B3
:10D1C0003FF470AF00F064F9BDE8F8432AF074B999
:10D1D000F88D10B1002A3FF465AF00F053F918B193
:10D1E000FF283FF45FAF59E7FE7008267C74B9E76B
:10D1F0004C2200206E150020822200207047000083
:10D200002DE9F34F6E4889B04FF0000B01788DF88F
:10D21000001090F82C108DF8011090F858108DF82F
:10D22000021090F884108DF8031090F8B0108DF86B
:10D23000041090F8DC008DF80500624802902C3054
:10D2400003902C3004902C3005902C3006902C301C
:10D2500007905D485D465E4680785F4600F00F08A7
:10D260005C46B8F1050F5FD81DF808000DF10809FC
:10D2700000282CD959F8280050F82500C3B2020C18
:10D28000C0F3072157FA80F087B204EBD30000F017
:10D29000FF0A104604F068F9002849D0AAEB0402FE
:10D2A000002A0EDD494B0021D2B200BF04EB010C75
:10D2B000491C43F82C00401C521E12F0FF02F5D10D
:10D2C0005446681C85B21DF80800A842D2D84FEA1F
:10D2D000D7083F4908F0010040440880384800243E
:10D2E00090F808118DF8001090F834118DF80110A5
:10D2F00090F860118DF8021090F88C118DF80310E1
:10D3000090F8B8018DF804003248807800F00F07DB
:10D31000314802902C3003902C3004902C30059032
:10D320002C300690042F07D90BB01D20BDE8F08FDC
:10D3300000274FF0250BCAE71DF80710002500292C
:10D340002BD900BF59F8270050F82500C3B2020CB2
:10D35000C0F3072156FA80F086B204EBD30000F048
:10D36000FF0A104604F000F930B3AAEB0402002AC9
:10D370000DDD1A4B0021D2B204EB010C491C43F81D
:10D380002C00401C521E12F0FF02F5D15446681CBE
:10D3900085B21DF80700A842D4D8F008104A00F062
:10D3A000010101441180099908800A98A0F80080C1
:10D3B0000BB05846BDE8F08F00264FF0250BECE788
:10D3C00048FA00204CFA0020081E0020D0FC002063
:10D3D000882200200C1E002054FB002030FC00207E
:10D3E0008622002009490A88002A08BF70470021C8
:10D3F000D2B2074B53F821C0491C521E9CF800C002
:10D4000000F801CB12F0FF02F4D17047782200201F
:10D4100030FC00200B490A88002A08BF7047002111
:10D4200010B4094BD2B200BF53F82140491C10F888
:10D4300001CB521E84F800C012F0FF02F4D110BCE0
:10D44000704700007A220020D0FC002008B50020A0
:10D45000009002224FF41A61684603F08BFD0749E1
:10D4600000980978012906D14FF47A71B0FBF1F0E8
:10D47000009007F003F9002008BD000053220020AF
:10D480000020704701490020087070475A22002090
:10D4900000207047002070470020704770B5224C74
:10D4A000224DB4F85C00132802D0122812D01AE0E2
:10D4B000208DA0F5B240D838B0F57A7F28BF70BD76
:10D4C000D5F85C010088A4F834034FF4CD7028F03F
:10D4D000BBF808E0D5F868010088A4F834034FF4DD
:10D4E000CD7028F0B1F8B4F85C00102808D1D5F858
:10D4F00060010088A4F834034FF4CD7028F0A4F83C
:10D50000B4F85C00112818BF70BDD5F8640100881C
:10D5100040F6FF71081AA4F83603BDE8704040F2E7
:10D520009B1028F091B80000F87100204000002006
:10D5300070B5304CE068022818BF70BD2E4A114605
:10D54000B2F84403B1F846C3B1F84833B1F84A130E
:10D55000002808BFBCF1000F03D1002B08BF002931
:10D5600028D00022120442EA11420904C91842F1EB
:10D570000002120442EA11430A0412EB0C0243F1C6
:10D5800000010904130441EA1241181841F1000195
:10D590001A4AD2E9103C43408CEA010C53EA0C03CE
:10D5A00008BF70BDC2E910010020C2E90800C2E94D
:10D5B0000A0070BDB2F84033012061684FF0000CE2
:10D5C000002B08BFA2F84003B2F84233002B08BF7B
:10D5D000A2F84203B2F840330024A1FB03050CFB80
:10D5E000035301FB0431B2F842232346FEF7C6FF82
:10D5F000CEE700006C2C0020F871002020330020C2
:10D600002DE9F047614C624E00256079012802D176
:10D6100000F064FAA0B1E38A03275E4A5E484FF047
:10D6200001094AF655214FF0050A4FF00408062B70
:10D6300028BFBDE8F087DFE803F0183C516B80801D
:10D64000E06A5649401CE0624988B0EB410F98BF40
:10D65000BDE8F087A6F8D05065715148E56225F025
:10D660007DFDBDE8F04728F083BDB6F8D030022B31
:10D6700008BFA4F816901AD0012B18BFA6F8D050F6
:10D6800001D065717FE01323238265821023A3827A
:10D69000A58161812571217952F821301B8820F8FC
:10D6A0001130491CC9B221713229F4D3E7822571A6
:10D6B000E7E70021207900F089FA012804D0022848
:10D6C00008BFA4F816A002E02079401C2071207940
:10D6D000642824BF0220E082BDE8F08703888B42E3
:10D6E00008BF257103D02F4825F038FD0BE02179C4
:10D6F00030F8113052F821C0491CC9B2ACF80030E2
:10D7000021713229F3D3A4F816802571BDE8F08782
:10D710002179405C00F03CFB012804D0022808BFBE
:10D72000A4F816A002E02079401C2071207964281A
:10D7300028BFA4F81680BDE8F08700F0CFF90028D4
:10D7400018BFBDE8F087E08A04281CBF6571A6F801
:10D75000D07002D028F00CFD13E0B6F8D0000128FC
:10D760001CBF6571A6F8D050F4D10F4884F805901D
:10D770000021028861F34F32028000880B4909685A
:10D780000880E5822571E562BDE8F087EC020020A3
:10D79000D88100207CB70308242A002030230020F1
:10D7A00041E941E93601360116030020F801002065
:10D7B00010B56621002000F0EBFA00280CBF3D21D7
:10D7C00010BD1E20401EB0F1FF3FFBDC491EB1F131
:10D7D000FF3FF6DCEDE700002DE9F05FB44800689C
:10D7E0000088DFF8D0B2ABF80000B34FD7F81801CB
:10D7F000B24910F4807F4FF00005ABF1260459D0F8
:10D80000AF4800680088BBF8002002F07F0200EB00
:10D810000242C7F8F420B86EB0F5000F0CBFC2F397
:10D820001602C2F31302C7F8F420A64A126812883F
:10D83000B1F834139142A2EB010188BF01F58031A8
:10D8400089B20AB2B0F5000F4FEAE2732BD01B0584
:10D8500043EA123312056FF3130200BFD7F8F4C086
:10D86000D7F814614CEA020216F0040F14D0002617
:10D8700036044FEA004846EA1046B8EB020266EB6F
:10D880000303521E43F1FF33A0EB0C00401EC7F808
:10D89000F4004FF6FF70411A8B48A0F88C10C7E9CE
:10D8A0003B2300F0F2B8DB0543EA5223D2056FF3C5
:10D8B0001602D3E7DFF81482DFF818A2A8F12A00D5
:10D8C000B1F820C0C078DFF80892431C0126DAF8CE
:10D8D0000020ACF5405EDBB2BEF5D66E19D110B1BA
:10D8E0000A2828D272E000F0F9F8002850D1B8F8E0
:10D8F0000010012060F34F31A8F80010B8F80000C4
:10D90000D9F8001008806570DAF800000680E6702B
:10D91000BBE0ACF55C51153904BFD7F8FC10002909
:10D9200006D00220607000F0D9F8002850D0ACE09A
:10D9300050B10A284AD3D7F8180140F48070C7F8CC
:10D940001801E5701580A0E000F0C8F800281FD18C
:10D950005A48008DA0F5B240D838B0F57A7F06D28B
:10D960005648B0F8F005012813D002281FD0B8F8A7
:10D970000010012060F34F31A8F80010B8F8000043
:10D98000D9F8001008806570E670DAF800000680AB
:10D990007BE0B8F80010052060F34F31A8F80010C4
:10D9A000B8F80000D9F8001008806670ECE7B8F805
:10D9B0000010062060F34F31A8F80010B8F80000FE
:10D9C000D9F80010088002206070DDE7E3705CE0A9
:10D9D000E078E8B30A283CBF401CE07055D3D7F884
:10D9E000180140F48070C7F81801E570DAF80000FB
:10D9F0000580334800680188BBF8000001EB004057
:10DA0000C0F316022F480068B0F900002B49B1F8A6
:10DA100034138142A0EB0100C8BF00F5803001B291
:10DA2000C817C00540EA5120C9056FF3160111431C
:10DA3000D7F8142112F0040F0DD00023BA6E1B0486
:10DA400043EA12431204511A63EB0000491E00E03E
:10DA500008E040F1FF30C7E93B10D7F89400C7F861
:10DA6000F80012E000F03AF878B9B8F80010062093
:10DA700060F34F31A8F80010B8F80000D9F8001092
:10DA80000880DAF800000680E6702078012818BFC8
:10DA9000BDE8F09F032010494FF6FF7251F8203087
:10DAA000401CC0B21A803228F8D32570BDE8F09F20
:10DAB000200200201203002030230020F8710020F3
:10DAC0001C0200209C010020D881002016030020A9
:10DAD000F8010020040200207CB703080D48002252
:10DAE000036818880C4907E0501C82B21E20401EB3
:10DAF000B0F1FF3FFBDC18880880088810F4806FC5
:10DB000002D00A2AF0D303E00A2A3CBF0020704763
:10DB100001207047200200201203002010B5274981
:10DB2000274C0020C1F8FC00B4F8260150B1228C2B
:10DB3000A2F55C52143A642A2ABF2248C1F8FC00BC
:10DB400025F00CFB208C43F22972811A904229D0D7
:10DB500013DC43F2C662A0EB0201904222D007DC44
:10DB600011F116001AD0142818BF15281AD010E089
:10DB70004F2913D062290CD114E013291AD004DCE8
:10DB800001290FD0092904D110E0142912D04F29FE
:10DB900004D0BDE810400C4825F0E0BABDE81040C4
:10DBA00011F042BDBDE810401EF012BBBDE81040B0
:10DBB0002AF03ABABDE8104012F05ABA30230020D9
:10DBC000F871002022012201200120112DE9F843E3
:10DBD0000025464C0746632882BF65830220BDE8C6
:10DBE000F883A07938B1DFF80881424E03281BD0B2
:10DBF000042845D04FE0404E0020318860F34F317B
:10DC0000318030883D4F39680880FFF767FF002872
:10DC100041D13188032060F34F3131803088396839
:10DC200008800320A07136E00095208B4FF0010999
:10DC300018B1FFF753FFB8B12DE0FFF74FFF50BB0E
:10DC4000BDF8000067F30E20ADF80000BDF800003D
:10DC500040F40040ADF80000BDF800002849096814
:10DC60000880A4F8189016E0D8F8000000883080EA
:10DC7000308810F4004F04BF258304200BD1D1E776
:10DC8000FFF72CFF38B9D8F80000008830803088C2
:10DC900010F4004F15D0608B401C80B26083B0F54B
:10DCA0007A6F06D81748008810F00F0008BFBDE84B
:10DCB000F883154825F052FAA57165830220BDE866
:10DCC000F8833088C0F30620B84207D130880F4966
:10DCD000C855A57165830120BDE8F8830C4825F07F
:10DCE0003DFAA57165830220BDE8F883EC020020AF
:10DCF000240200201403002016030020F801002055
:10DD000010020020FA02002040074077242A002059
:10DD1000330A330A70B51948194A0025B0F85C0077
:10DD2000184C00F0F0004AF2A551102804D01068F9
:10DD30000180A570032070BDA07820B1012818BF14
:10DD4000A57010D111E010480023B0F800C063F3B3
:10DD50004F3CA0F800C000880C4B1B68188010686E
:10DD600001800120A070022070BDFFF7B7FE0028DF
:10DD700004BFA5700320F6D170BD0000F87100202B
:10DD8000B4010020EC02002016030020F80100205E
:10DD90002DE9F8434F4C80460E46E0794FF00109DB
:10DDA000002540B104F1280701281DD002284DD0DC
:10DDB00003285DD062E0484E0020318860F34F3187
:10DDC00031803088454F39680880FFF787FE00288A
:10DDD00054D13188042060F34F3131803088396864
:10DDE000088084F8079049E00095A08B18B1FFF7F0
:10DDF00075FEF0B142E0FFF771FE00283ED1BDF89C
:10DE0000000068F30700ADF80000BDF8000066F3FD
:10DE10000E20ADF80000BDF8000040F40040ADF861
:10DE20000000BDF800002E4909680880A4F81C9085
:10DE300024E02C48006800883880388810F4004FAF
:10DE40001CD1A5830220E071258417E0208CB0F559
:10DE5000487F3CBF401C208410D32584E583602983
:10DE60003ABF0320E071E57108D30120BDE8F883D3
:10DE700000213046FFF7AAFE012816D0E08B41F2C0
:10DE80007071401C80B2E083884206D81648008832
:10DE900010F00F0008BFBDE8F883144825F05EF9C4
:10DEA000E571E5830220BDE8F8833888C0F30620D9
:10DEB000B04206D13888C0B2404504BFE571E58361
:10DEC000D3D00B4825F04AF9E571E5830220BDE87F
:10DED000F8830000EC02002016030020F801002067
:10DEE0001002002024020020FA02002040074077A0
:10DEF000330A330AF0B401894FF6FF754FF0000C76
:10DF0000A94232D01A4C0126A8B1216851B10F891B
:10DF100003899F420CD9C0F800C0216841600860A5
:10DF200020601EE02060C0F804C0C0F800C018E007
:10DF30000A899A4202D13046F0BC704708D90B6872
:10DF4000C0E900310A68002A18BF5060086008E084
:10DF50004A68002A18BF1146EAD14860C0F804C0D8
:10DF6000016028300189A942CED1F0BC60467047DB
:10DF70005C13002070477047704770472DE9F047E9
:10DF8000FE48018821F004010180018821F0080188
:10DF90000180018821F010010180018841F40071A5
:10DFA00001800446DFF8D893B4F920000126401E12
:10DFB000F44D4FF461674FF00A08092814D2D5F8E0
:10DFC0009400D4F890106422401AE96E5143B1FBDA
:10DFD000F7F10028B8BF4042884205DD484625F0E9
:10DFE000BDF86680A4F82080B4F920000F2828BF6F
:10DFF000BDE8F087DFE810F00F004E009B011D0226
:10E000007C02DB023B039B0308046B04AB04F504B6
:10E01000040537057305DC48B0F8C805012832D07F
:10E02000D948DA49B0F8F400B1FBF0F0D849C8811A
:10E03000D749C889A0F1C8024A814FF4C0720A8248
:10E0400047F6FF721044D34A12681080D24A00206B
:10E0500012681080D14A4FF4004012681080C889BD
:10E06000B1F91010A0EB6100CD4909680880CD48D6
:10E070002684016821F020010160D5F89400C4F8DD
:10E080009000BDE8F0872888C049B1FBF0F0C04996
:10E09000C881CDE7BC48B0F8C805012811D0BA48FE
:10E0A000BB49B0F9F2008881CA89B1F91010A2EB1E
:10E0B0006101A1EB6000BA4909680880022000F004
:10E0C0009CBC208B48B301284BD0022800F0CC80A8
:10E0D000032818BFBDE8F087002020836083A08359
:10E0E000AB4DA948A989A0F8F210E18BA0F8F41073
:10E0F000792027F0A9FA7A2027F0A6FAE889B5F95D
:10E100001010A0EB6100B5F90C10A0EB6100A44960
:10E1100009680880022000F070BCA08B01281CBF99
:10E120002888E08302D02683BDE8F087E08B9749FA
:10E13000C83880B2E083B1FBF0F0954A0021D0816D
:10E140005181918147F6FF7108449249096808801E
:10E15000D089B2F91010A0EB6100914909680880DC
:10E16000E1E78648018821F480610180018841F45B
:10E1700000610180018841F480510180018821F40F
:10E1800000510180018841F480410180018841F4FF
:10E19000004101800088844909680880608B02285A
:10E1A00006D2401C60837F48016821F02001BBE05B
:10E1B00010D14FF003007D4A608375481268418991
:10E1C00011807B49C089096808807648016841F060
:10E1D0002001A9E0032815D004281AD07149002095
:10E1E00060830A6822F020020A606749CA8ED4F868
:10E1F0008410914221DD664841898181032020837A
:10E20000BDE8F087042060836648016821F02001A2
:10E210008AE0D5F880006549C4F884005C48096844
:10E22000C089088062490020096808800520608351
:10E230005C48016841F0200176E0554AB2F90A20B5
:10E24000002AC8BF0220DADC642904DDA68302208C
:10E250002083BDE8F087A0832083A4F8208048466F
:10E26000BDE8F04724F07ABF4448018841F480615A
:10E270000180018821F400610180018821F480512E
:10E280000180018841F400510180018841F48041FE
:10E290000180018841F400410180008842490968F9
:10E2A0000880608B0228FFF47CAF10D14FF0030090
:10E2B0003E4A608336481268C18911803C494089D2
:10E2C000096808803748016841F020012CE00328E4
:10E2D00012D0042819D000206083208331480168BF
:10E2E00021F0200101602A49B1F90A000028C4BFC9
:10E2F000401E4881BDE8F0870420608329480168FA
:10E3000021F020010160BDE8F087284905206083E5
:10E3100009680020088026491D480968C0890880CE
:10E320002048016841F020010160BDE8F0871348F2
:10E33000018821F480610180018841F4006101803D
:10E34000018841F480510180018821F4005101804D
:10E35000018841F480410180018841F4004101803D
:10E360000088114909680880D4F88800042824DA54
:10E37000401CC4F888000B4801681BE05C030020C7
:10E380000226022630230020F8710020005A620283
:10E39000A82B0020EC010020840000208800002031
:10E3A00074000020FC220020440100203C010020D9
:10E3B0000802002021F02001B6E710F0030F13D06F
:10E3C00000F00301012904BFD5F880106184CFD08B
:10E3D00002291AD00020C4F8880003202084F948BC
:10E3E000016821F020019FE7F84BF7491B688A89F3
:10E3F0001A80F74AC98912681180401CC4F8880045
:10E40000F048016841F020018EE7D5F88010EF4A0E
:10E41000A184ED491268C9891180ED4A0021126872
:10E420001180401CC4F88800E648016841F02001D2
:10E430007AE7E848018841F480610180018821F48D
:10E4400000610180018821F480510180018841F43C
:10E4500000510180018841F480410180018841F42C
:10E46000004101800088DC4909680880D4F88800F0
:10E470000428FFF67DAF10F0030F14D000F0030165
:10E48000012904BFD5F88410E1843FF471AF02295B
:10E490001AD00020C4F8880004202084C9480168EC
:10E4A00021F0200140E7C94BC7491B68CA891A807F
:10E4B000C74A898912681180401CC4F88800C14885
:10E4C000016841F020012FE7C04AD5F8841021856A
:10E4D000126800211180BE4ABB491268C9891180A7
:10E4E000401CC4F88800B748016841F020011BE7D0
:10E4F000B848018841F480610180018841F40061DD
:10E500000180018821F480510180018841F400518B
:10E510000180018841F480410180018821F400419B
:10E5200001800088AC4909680880D4F88800042874
:10E53000FFF61EAF10F0030F14D000F00301012905
:10E5400004BFD5F8841061863FF412AF02291AD0B7
:10E550000020C4F88800052020849A48016821F032
:10E560002001E1E69A4B98491B688A891A809B4AE8
:10E57000C98912681180401CC4F88800914801685C
:10E5800041F02001D0E6D5F88410914AA1868E4949
:10E590001268C9891180914A002112681180401CBB
:10E5A000C4F888008748016841F02001BCE689482A
:10E5B000018841F480610180018841F4006101809B
:10E5C000018841F480510180018821F400510180CB
:10E5D000018821F480410180018841F400410180DB
:10E5E00000887D4909680880D4F888000428FFF66F
:10E5F000BFAE10F0030F0FD000F0030101291CD0B3
:10E6000002291FD00020C4F88800062020846D480D
:10E61000016821F0200187E66D4B6B491B68CA89B0
:10E620001A806E4A898912681180401CC4F88800DB
:10E630006448016841F0200176E6D5F8841049422B
:10E64000E18695E6D5F88410614A4942218712682F
:10E6500000211180614A5C491268C9891180401CFF
:10E66000C4F888005748016841F020015CE6594829
:10E67000018841F480610180018821F400610180FA
:10E68000018841F480510180018841F400510180EA
:10E69000018821F480410180018841F4004101801A
:10E6A00000884D4909680880D4F888000428FFF6DE
:10E6B0005FAE10F0030F0FD000F0030101291CD052
:10E6C00002291FD00020C4F88800072020843D487C
:10E6D000016821F0200127E63C4B3B491B68CA89B1
:10E6E0001A803E4A898912681180401CC4F888004B
:10E6F0003448016841F0200116E6D5F880104942FF
:10E70000E18535E6D5F88010304A49422186126805
:10E7100000211180314A2C491268C9891180401C9E
:10E72000C4F888002748016841F02001FCE5294829
:10E73000018821F480610180018841F40061018039
:10E74000018841F480510180018841F40051018029
:10E75000018841F480410180018821F40041018059
:10E7600000881D4909680880D4F888000428FFF64D
:10E77000FFAD10F0030F14D000F00301012904BF16
:10E78000D5F8801061853FF4F3AD022928D0002030
:10E79000C4F88800082020840A48016821F020017C
:10E7A000C2E50A4B08491B688A891A800B4AC98945
:10E7B00012681180401CC4F888000248016841F0CA
:10E7C0002001B1E5FC220020A82B00203C01002004
:10E7D000080200205C030020440100200C020020FD
:10E7E000D5F88010C54AA185C3491268C98911802E
:10E7F000C34A002112681180401CC4F88800C14837
:10E80000016841F020018FE5B4F92400B4F9221029
:10E81000B4F92620401AB4F92810B4F93630891A10
:10E82000401AB4F93410B4F93220B4F92AC0891A64
:10E83000B4F93820D21A891AB4F93020B4F92E303C
:10E840008902D21AB4F92C30A3EB0C03D21A831A22
:10E85000104440F2ED6C03FB0CF3A1EB40205D1083
:10E8600080FB0013C5FB0513C4F88C000022881E32
:10E8700073F1000038BF0A461ED3980F4FEA830396
:10E8800043EA91774FEA81031CBF0122401E002119
:10E89000491C8000520000EB977006EB420C89B2D5
:10E8A000604524BF521CA0EB0C004FEA870C4CEAD9
:10E8B00093779B001F29EBD3E817C00340EA55412B
:10E8C000E8030023FDF7E4FE6087092095E08E4908
:10E8D000B4F93A304020B1F980209A4209DD401C59
:10E8E00080B2C02801D9002003E031F910209A42FB
:10E8F000F5DC31F910209A4204BF0002A0F58040F7
:10E900000CD001EB400131F9021C8A1AC91A090224
:10E9100091FBF2F101EB0020A0F582404FF4E161A0
:10E920004843D4F88C10C0F3CF300029BCBFC0F5E9
:10E93000616080B275494886E96E4843B0FBF7F0E4
:10E94000734909680880A4F82080BDE8F087D5F8ED
:10E950009400C4F89000D4F8880008B30328BCBF22
:10E96000401CC4F8880014DB6A4A0020C4F8880000
:10E970001268B5F8B61011806749B1F8C6150229BA
:10E9800019BF618801296149A1F8CE0018BF0B2089
:10E99000208462480068068000210180BDE8F0877D
:10E9A0005F49B5F8B4000968088054490020096837
:10E9B00008805C4909680880514909680880B5F8F1
:10E9C000C4005949096808805849B5F8B000096879
:10E9D00008805749B5F8B20009680880C4F8886013
:10E9E000D7E74A491020A1F85201A5F8E0600020BD
:10E9F000A5F8E200C4F888000C202084BDE8F08768
:10EA00004248B0F85211112904BF1221A0F8521146
:10EA1000B5F9E210A9B93B480068C0F3C10002286B
:10EA20000FD03D4AE86ED4F89030B2F842205043FF
:10EA3000D5F8942000EB80008008D21A8242C8BF2B
:10EA40006680D4F88800421CC4F8882049F6404209
:10EA50009042C8BF668001291ABF608801280D2036
:10EA6000CBD0BDE8F087294920200026A1F852012B
:10EA7000C4F88860D5F8DC00D4F89020801A4A8E5B
:10EA8000E96E002802FB01F2B2FBF7F2CCBF1044A2
:10EA9000101AB0FBF1F201FB1200618800291CBFC3
:10EAA0006680484608D000BF24F058FBA5F8E06017
:10EAB000A5F8E2600E20A0E74FF461614843E96EDB
:10EAC000B0FBF1F01449A1F86200A1F86400312014
:10EAD00026F0BAFD322026F0B7FD1648E4E70B48D1
:10EAE000B0F85211002918BFBDE8F0870021218439
:10EAF000A0F8CE10BDE8F087A82B00203C01002034
:10EB00000C020020FC220020D2B40308D88100208F
:10EB10004001002044010020F87100202C01002059
:10EB20007400002008020020EC0100208400002076
:10EB30008800002041E941E92DE9F04FF84EF949FC
:10EB400083B03289012342B3F7488C460227BCF8D0
:10EB5000B6B0D0F800E0012A29D00D46DFF8CCA3EA
:10EB6000B5F920C00024D5F81490D5F86C80D5F8FC
:10EB70009400022A29D0032A00F07381042A00F0AD
:10EB8000E381052A1CBF03B0BDE8F08FE848A0F878
:10EB9000CE40348103B0BDE8F08FD1F8180140F0C9
:10EBA0000800C1F81801338103B0BDE8F08F4BF0C5
:10EBB0000200AEF80000DF480068C0F3C100022880
:10EBC00008BF378103B0BDE8F08FDB4AB346D749B1
:10EBD000B2F8B655F582B8FBF5F2B266D64E0A60C9
:10EBE000B6F8CA6508FB06F642F21078B6FBF8F6EE
:10EBF000B6B20E810096CA49BBF80E60B1F812A0F9
:10EC0000D1F86C80CDF80480896F08F10108052ED9
:10EC100024BF03B0BDE8F08FDFE806F00317739858
:10EC2000FB00C049CBF87800CBF87C004C61DBF8E6
:10EC30007000BE495043000B4860C0490968088015
:10EC4000ABF80E3003B0BDE8F08FB54AB54EE145E4
:10EC5000526F06DA0F2535EA020204BF09F10102FC
:10EC600072615D46AE4ABAF1000F526F02F10109BE
:10EC700018BFC5F8749009D07088696FB1EB800F28
:10EC800084BF0420E88103B0BDE8F08F421A002A57
:10EC9000B8BF0A1ADFF888A2DDF800B0BAF814A0ED
:10ECA0005A4519DD884204DDD6F8142112F0040F0C
:10ECB00006D0884206DAD6F8140110F0040F01D00D
:10ECC000AB8100E0AF81BAF1000F02D1AB82A8891D
:10ECD00068816C67EF81CFE7C5F87490BAF1000FD7
:10ECE00004BF7069B0EB6C0FC6D1B8F1030F3CBF25
:10ECF0006C67AC81EED30420E881914824F02EFAB1
:10ED0000BAE7884A5461DBF87C2090421FBFABF819
:10ED10001040CBF87C0003B0BDE8F08FBBF81000CA
:10ED2000401C80B2ABF810001E283CBF03B0BDE809
:10ED3000F08F0320ABF80E00ABF81040501ACBF860
:10ED40007440CBF8800003B0BDE8F08FBBF80C1026
:10ED5000BBF80A0081EA000C032030EA0C0C704872
:10ED6000D0F8800008BFABF8123002D0BAF1000F23
:10ED700007D06B4BDB6E1E03012925D0022931D051
:10ED80003DE0012903BF0199491ECBF86C104146B3
:10ED900018BFCBF86C800029B8BF294403DBA94217
:10EDA000A8BF491B01DBCBF86C10C117090341EA6E
:10EDB00010510003D317FDF76BFCDBF86C1009034F
:10EDC0004018CBF870001AE0C117090341EA10514E
:10EDD0000003D317FDF75CFCA6F500614018CBF8E3
:10EDE00070000CE0C117090341EA10510003D3176A
:10EDF000FDF74EFC06F500614018CBF87000DBF81B
:10EE000070000028B8BF00EB053007DBB0EB053F12
:10EE100000E00AE0A8BFA0EB053001DBCBF87000F2
:10EE2000ABF80E4003B0BDE8F08FABF80E40CBF866
:10EE30008040ABF81040ABF81240ABF81440ABF890
:10EE40000C40ABF80A40CBF87440CBF86C40032080
:10EE5000CBF87040ABF80800CBF8504003B0BDE8E9
:10EE6000F08F354AB2F8BA25012A05D00420308146
:10EE7000346503B0BDE8F08F326D8AB14B8803EB87
:10EE80004303934203D838BFB2EB430F1AD2DAF8E8
:10EE90000000716E884234D912F00F0F31D106E0B4
:10EEA0007065DAF804003066C1F814C029E0306EED
:10EEB000491C401C8045C6E918013CBFA0EB080076
:10EEC00030661EE0934204BF7466B06519D0F065E9
:10EED000D1F81401124910F0040F1A48D1E9153283
:10EEE0001049D1F89410A1EB0201A2EB030212D059
:10EEF000002901DC002A01DD24F030F904203081F2
:10EF000074660E49306E09680880306D401C3065AB
:10EF100003B0BDE8F08F0029A8BF002AEEDAEBE7C6
:10EF20005C0300203023002044010020A82B002097
:10EF3000D8810020FC220020F87100204001002030
:10EF400002260226200220020C61B9F1000FC1BF87
:10EF5000A9F10200486103B0BDE8F08F4C61AEF842
:10EF600000B0D1F8180120F00800C1F818010748D6
:10EF7000006810F4804F1CBF03B0BDE8F08F05207F
:10EF80003081346503B0BDE8F08F0000FC22002022
:10EF90002DE9F05FA44CA54FDFF894E2A18800268C
:10EFA000A44D4FF0010800293ED0A3480129D0F814
:10EFB00000B04BD02046AC46A04A006CBCF920A063
:10EFC000DCF81430401C1268DCF86CC0022950D008
:10EFD000DFF86C92032973D0042900F0EF80052933
:10EFE00000F0F480062918BFBDE8F09FA680AEF8B7
:10EFF000CE60D5F8140110F0040F8B48D0F89010B3
:10F000008C48D0F8DC000CBF401A081AB0FBFCF1A9
:10F010000CFB11006188002900F0F2806680BDE8D9
:10F02000F05F884824F09AB8386810F4803F1CBF1D
:10F03000AEF8CE60BDE8F09FD5F8180140F00800AA
:10F04000C5F81801A4F80480BDE8F09F1E20ABF8B5
:10F0500000003868C0F3C100022818BFBDE8F09F67
:10F060006E6102202E61A080D5F894006064BDE836
:10F07000F09F206410F00F0F03D15345BCBF591C03
:10F080006961698801EB4101884209D2CCEB0C101F
:10F0900040004FF4B471B0FBF1F01080BDE8F09F78
:10F0A000B0EB410F3CBF1680BDE8F09F0320A0806D
:10F0B0002664D5F89400C4F89000BDE8F09FFFE7FF
:10F0C0002064C5F814A0E36B1380B5F8E0C0591CA8
:10F0D000BCF1000F06D1DFF868C1BCF8BAC5BCF1BD
:10F0E000010F09D0A5F8E080B5F8E230002B08BF89
:10F0F00010F00F0F48D13CE0002B04BFD5F894204E
:10F1000062640DD0EA6EB3EBD20F04BFD5F8942041
:10F11000A26405D0B3EB920F04BFD5F89420E2644B
:10F12000EA6EB3EB520F04D210F00F0F08BFE16389
:10F130002AE0D4E91110411A00290ADDE16CA1EBA3
:10F140000000002811DDD5F8140110F0040F0CD1D7
:10F1500008E00ADAE16C081A07D5D5F8140110F0B6
:10F16000040F02D0A5F8E0800EE0374823F0F6FF48
:10F170000AE0E163E86E884204D8081AE063E08898
:10F18000401CE080E06B10803868C0F3C1000228AA
:10F1900005D1B9F84200E188B1EB400F01D9A4F8DC
:10F1A0000280B5F8E20001281EBF60880128BDE892
:10F1B000F09FE680E6630420266404E0A5F8E060A2
:10F1C000A5F8E2600520A080BDE8F09F2E61002B2D
:10F1D000C2BF981E6861BDE8F09FD5F8180120F005
:10F1E0000800C5F818016E61386810F4804F04BF3C
:10F1F0000620A080B5F8B600ABF80000BDE8F09F8F
:10F200004FF461614843B0FBFCF0A9F86200A9F833
:10F210006400312026F018FA322026F015FABDE8F5
:10F22000F05F0A4823F09ABF5C030020FC22002014
:10F23000D88100203023002044010020400100201C
:10F24000F8710020022602262002200241E941E94D
:10F250000648B0F8E010012918BF7047D0F89410A4
:10F26000C0F8DC100121A0F8E21070473023002024
:10F270008C4A10B4126842F21074D30393FBF4F377
:10F2800084460020BCF10A0F80F00381DFE80CF017
:10F29000051F6B80A239C352D6EC8348DFF80CC23D
:10F2A00000EB81000069DCF808C080FB0C0C000D4D
:10F2B00040EA0C3C7E4830F911004FEA62011CEB39
:10F2C000000003FB00F001EBE03000F0E2B876480C
:10F2D000DFF8E0C100EB81000069DCF86CC080FB66
:10F2E0000CC04FEA1C5C4CEA003C714830F911003C
:10F2F0004FEA62011CEB000003FB00F001EBE03081
:10F30000C7E06948DFF8B0C100EB81000069BCF9D3
:10F3100016C080FB0C0C42F2107CA0FB0C0CDFF83A
:10F3200090C13CF9111001EB20505110584301EBF2
:10F33000E030AEE05C48DFF87CC100EB81000069A2
:10F34000DCF848C080FB0C0C000D40EA0C3C58482F
:10F3500030F911004FEA62011CEB000003FB00F0E2
:10F3600001EBE03095E05048DFF840C100EB810050
:10F370008068DCF804C000FB0CF0DFF834C13CF915
:10F38000111001EBE0305110584301EBE03080E008
:10F3900048484AF6C87CD0F808016045C8BF4AF61C
:10F3A000C87004DCDFF814C18445C8BF6046DFF8CC
:10F3B00000C13D4C3CF911C004EB8101896948430F
:10F3C0000CEB201083FB0030DB0B511043EA404074
:10F3D00008185EE037484AF6C87C406B6045C8BFF5
:10F3E0004AF6C87004DCDFF8D4C08445C8BF604664
:10F3F000DFF8BCC02C4C3CF911C004EB81018969D9
:10F4000048430CEB201183FB0113C90B501041EA58
:10F41000434140183DE02648DFF88CC030F9110028
:10F420000CEB8101DFF88CC0096A9CF865C001FB18
:10F430000C005110584301EBE0302AE0DFF868C0BF
:10F440001C480CEB810CD0F8DC00DCF828C000FB79
:10F450000CF0DFF85CC03CF9111001EBE03051100A
:10F46000584301EBE03014E0DFF83CC011480CEBEE
:10F47000810CD0F8E000DCF828C000FB0CF0DFF8CD
:10F4800030C03CF9111001EBE0305110584301EB52
:10F49000E0309042C8BF10461428B8BF142010BCFA
:10F4A0007047000024070020004C00207C2C002026
:10F4B00028070020EC2C0020D88100203850FFFFC6
:10F4C0002DE9F047DFF8AC91B9F8B84214F4004FD9
:10F4D00018BFA4F58034B9F8BE5215F4004F18BF18
:10F4E000A5F580350020644EDFF8908140F2D937D1
:10F4F00030607060A00388FB00104111A1EBE07048
:10F5000080FB07014FF47A720023FDF7C1F8B06069
:10F51000A80388FB00104111A1EBE07080FB0701FC
:10F520004FF47A720023FDF7B3F8F060E017C004DF
:10F5300040EA5431E00442F210720023FDF7A8F8CB
:10F5400080FB0701DFF838A100235246FDF7A0F841
:10F550003061E817C00440EA5531E80442F2107205
:10F560000023FDF795F880FB070152460023FDF7C5
:10F570008FF870614FF4C870604388FB0010411130
:10F58000A1EBE07080FB07014FF47A720023FDF7D6
:10F590007FF8B0614FF4C870684388FB00104111D8
:10F5A000A1EBE07080FB07014FF47A720023FDF7B6
:10F5B0006FF8F06141F28830604388FB0010411120
:10F5C000A1EBE070401080FB07014FF47A7200233A
:10F5D000FDF75EF8306241F28830684388FB001026
:10F5E0004111A1EBE070401080FB07014FF47A72EB
:10F5F0000023FDF74DF8706242F6E060604388FB3F
:10F6000000104111A1EBE0704010394641434FF426
:10F610007A7091FBF0F1B16242F6E061694388FBD8
:10F6200001214A11A2EBE17149103A46514391FB85
:10F63000F0F0F062B9F9B602124C80FB07014FF40A
:10F640007A720023FDF724F849104FEA3000643045
:10F650002080B9F9BC024FF47A7280FB07014FF0A9
:10F660000003FDF715F849104FEA30006430608060
:10F67000BDE8F087F8710020004C00201F85EB5199
:10F68000A08601002807002030B5094C0021B4F8FD
:10F69000B402FFF7EDFD85B2B4F8BA020121FFF71D
:10F6A000E7FD044980B20D600349086030BD0000E9
:10F6B000F871002038040040400400402DE9F04F6C
:10F6C00093B00A200C900C200B901E200A901F2053
:10F6D00009902020079021200690222005903620B6
:10F6E000A4490890372003900F1D3820002601F50B
:10F6F000EE79DFF884A23D4604904F4594BFDFF8D1
:10F700007CB2012000F21381E81B841004EB84001A
:10F710000BEB8008D8F81000C0F30030012840F04F
:10F72000F38028460FF00CF90646D8F81000C0F315
:10F73000431002280BD89248D8F8042030F816104D
:10F7400092B2914218BF20F8162000F0DDB80C9854
:10F75000844222D18A4A4FF0000CB2F860000104C2
:10F76000B2F85E00B2F85C2009184CEB0C0012F005
:10F77000F00F03D1800040EA9170890047F6FF72D4
:10F78000A1FB02C400FB0240002301FB030142F283
:10F7900010726046FCF7F2FEA7E00B98844221D17C
:10F7A000774A4FF0000CB2F86000B2F85E10000427
:10F7B0004018B2F85C204CEB0C0112F0F00F03D1B2
:10F7C000890041EA907180000722A0FB02C401FB7E
:10F7D0000241002300FB031142F210726046FCF765
:10F7E000CDFE82E00A98844220D1654B4FF0000C98
:10F7F000B3F86000B3F85E20D98F00048218B3F824
:10F800005C304CEB0C0013F0F00F03D1800040EAA9
:10F8100092709200A1FB02C4002303FB024201FB91
:10F8200000213C226046FCF7A9FE5EE00998844274
:10F830001FBF089884420398844227D15048002370
:10F84000B0F86010B0F85E2009048918B0F85C00C8
:10F8500043EB030210F0F00F03D1920042EA9172E1
:10F8600089006423A1FB030802FB03824FF0000C14
:10F8700001FB0C213C226346FCF780FE03998C427D
:10F8800033D14049A1FB0010C0082EE00798844204
:10F890001CBF0698844207D0059884421EBF049876
:10F8A0008442D8F8040020D135494FF0000CB1F85B
:10F8B0006000B1F85E2000048018B1F85C104CEBD9
:10F8C0000C0211F0F00F03D1920042EA9072800016
:10F8D0002D4B0021A0FB03C402FB034200FB0121CE
:10F8E0003C2200236046FCF749FE254A02EB460114
:10F8F00032F81630B1F802C003EB0C43834203D058
:10F9000022F81600000C4880DAF80000016821F0A7
:10F910007F01533101602D1D4D457FF6F5AE701C02
:10F9200040F2AA6181429CBF13B0BDE8F08F144C35
:10F93000164BDAF8001040F2AA6200BF00EB400C50
:10F9400003EB8C0C5CF8B85C05F00305022D1CBFC2
:10F950003CF8C0CC24F810C0D1F800C02CF07F0CCB
:10F960000CF1530CC1F800C0401C9042E6D313B018
:10F97000BDE8F08FD0F200204C040020687D040820
:10F98000F8710020CDCCCCCCA0860100E0080408A2
:10F9900070B50A4C064694F901003568022803DA6E
:10F9A000401C7560607007E0606802222844C1173F
:10F9B0000023FCF76DFE7060656070BD1C040020C4
:10F9C00090F90E10364A32F8111090F90F201144B8
:10F9D000344A01EB410102EB81018968C1F38312D2
:10F9E000002A08BF012202D00A2A88BF0A222E4B11
:10F9F000016903EB82030A2A53F8043CB1FBF3FCD0
:10FA000003FB1C1129D2DFE802F02821281A281351
:10FA1000280C2805254BC1F3002C13F80C30037675
:10FA20001BE0224BC1F3801C13F80C30437614E02A
:10FA30001E4BC1F3001C13F80C3083760DE01B4BFA
:10FA4000C1F3800C13F80C30C37606E0DFF85CC01D
:10FA500001F001031CF8033003775208062A28BF7F
:10FA60007047DFE802F01C17120D0803104AC1F3BB
:10FA70000123D25C02760E4AC1F38113D25C427636
:10FA80000B4AC1F30113D25C8276094AC1F38103A8
:10FA9000D25CC276064A01F00301515C01777047DF
:10FAA000D0070408E0080408A87904083879040895
:10FAB0003A7904082DE9F04FDFF8B48089B008F5F1
:10FAC0009470DFF8B090D0E901A106680091C16898
:10FAD0000191D9F88CB0A0F180040027264DA771C0
:10FAE000017C287811B1012804D006E0012808BF64
:10FAF0002F7004E022F056FE2F70E0680644A660E6
:10FB000022F050FED4E90201411A1C482AF06AFC96
:10FB1000090441EA10410004C4E90401A068E0605E
:10FB2000D9F87C10504604F02FF805460E46DDE962
:10FB300000015A4603F056FE1148D4E91091B0E88E
:10FB40000C140F46CDF82080D4E90401CDE906015C
:10FB500002A8A0E80C14D4E91201CDE900012A465C
:10FB600033464846394603F0DFF909B0BDE8F08F67
:10FB7000D8F40020D0F200202F07002078F60020D3
:10FB8000D0F600202DE9F05FDFF8FCB03F4A404C92
:10FB9000DBF80400DFF8FC90C117871841F1FF384B
:10FBA000DBF800005242C117851894F8500041F16B
:10FBB00000064FF0000A012806D002284BD1D9F8E0
:10FBC0000C0010F4004F46D0781B78EB060007DAE3
:10FBD00040F6B8302F1846F100082F4823F0BEFA3F
:10FBE0002E48DBF804204FF0010CD0E90410D317A5
:10FBF0008A1A70EB0302A8BF84F839C009DA94F8B6
:10FC00003920012A05D17A1A78EB0002A8BF84F8BE
:10FC100039A0DBF80020D317521A73EB0002A8BFFB
:10FC200084F83AC008DA94F83A20012A04D1491B32
:10FC3000B041A8BF84F83AA094F8390001281CBF4D
:10FC400094F83A00012817D01548D0F8481111F45B
:10FC5000005F11D106E084F839A084F83AA084F856
:10FC600038A0F1E7D0F8480110F4804F04BFD9F86C
:10FC70000C0020F4006003D0D9F80C0040F40060C0
:10FC8000C9F80C00BDE8F09FA8F6002048F4FFFF7B
:10FC900080F50020D0F20020096D096D203300208E
:10FCA000EC2C00202DE9F0413E4CD4F858013E4F99
:10FCB0003E4D10F0004F1ED13D4EB868B0617168E6
:10FCC00030468847F0690028ACBF01214FF0FF3172
:10FCD00001EB4102C2EBC11100EB81004FF47A71DC
:10FCE00090FBF1F1334824F02FFBC1170A220023C7
:10FCF000FCF7CEFC2864D4F858010026C0F382003B
:10FD0000022805D1D4F8580100F00300022810D0D1
:10FD100084F87A602848007803281CBF0928BDE8C9
:10FD2000F08194F87A10E86861F38A20E860BDE811
:10FD3000F081B868214FDFF8888087FB00104111FF
:10FD4000A1EBE070C8F81800D8F8041040468847C6
:10FD50006B6CA86C82B21B48406887FB0010411195
:10FD6000A1EBE070D8F81C10081A10F1630F87FBA4
:10FD700000104FEA6011AEBFA1EBE071A1EBE070A3
:10FD8000414211489942C8BF0660C1DC01689142F6
:10FD900023BF0260012084F87A00491C38BF01604B
:10FDA000B8D2B5E7EC2C00207C2C0020D0F200204B
:10FDB000180D002060F60020AC0D00201F85EB51CF
:10FDC000480D0020D82E0020100D00202DE9F0470E
:10FDD00007462C4842F21071C08F10FB01F52948EC
:10FDE000B0F84E06022818BF012803D12648007833
:10FDF000092832D02548C46FDFF894800026D8F84F
:10FE00000C90B9F1000F08BF00242ED02148C8E99A
:10FE10000046426800234FF0F8409221FCF7AEFB09
:10FE2000D8F808208446ACFB020A01FB02A100239B
:10FE30000CFB03114A46FCF7A1FBA4FB0023C8E915
:10FE4000040106FB003004FB0100120D42EA0034FD
:10FE50000015EA172B1B824101DA2C4605E06942A6
:10FE6000CA17631A9041B8BF0C46AC42C8BF2C46B3
:10FE7000A742B4BF3846204661428842D8BF0846F0
:10FE8000BDE8F087F8710020AC0D0020D0F2002012
:10FE900048F600206C2C002010B400282DD0184B00
:10FEA0004FF0000C196861B10C89028994420ED997
:10FEB000C0F800C0196841600860186010BC0020DC
:10FEC00070471860C0F804C0C0F800C0F6E70B899E
:10FED000934212D008D90A68C0E900210A68002AB2
:10FEE00018BF50600860E9E74B68002B18BF19463F
:10FEF000EDD14860C0E9001CE0E710BC012070476C
:10FF00005C13002010B50E4C206828B1002118F0B9
:10FF10001DFD0020206010BD4FF48070FCF7D8FA62
:10FF2000002808BF10BD07490A6802604A6842609D
:10FF30008A68826089898181BDE8104025F0BAB95C
:10FF40009422002060F700200148006870470000FC
:10FF50005C130020024900200860024908807047B5
:10FF600094220020241500202DE9F84F264CD4F8C7
:10FF700000C0BCF1000F08BFBDE8F88FDFF88C802F
:10FF8000234D244E98F800000090DFF88C90DFF8A5
:10FF90008CA02B6899F80010BAF800003268E0478E
:10FFA0000746FF2808BFBDE8F88FDFF874B00024CB
:10FFB0009BF8000001280DD0022804D0032818BFA8
:10FFC00004280DD011E01749086818B1FCF7AFFA02
:10FFD0001448046000221146384625F0A9FA04E0CE
:10FFE0002A683846316825F0A3FA8BF80040AAF851
:10FFF000004089F80040346003482C6088F80040D5
:020000040801F1
:100000000460BDE8F88F0000341500201A150020A8
:10001000301500202C1500201B1500202215002073
:10002000191500203815002030B52C482022022355
:100030000280438000244460042184608181DFF8D1
:10004000A0C0C0E904C48483046284862548264D88
:1000500002804380446084608181C0E904C4848359
:1000600004628486281D2C60FDF744FF002804BF2D
:100070001E48FDF73FFFF8B12968E1B10A894968D8
:100080002868B0B10389934210D1D0E90032002B27
:1000900018BF5A60002A18BF1360046044602B68C0
:1000A00000891B89984208BF2A6002E04068002846
:1000B000E8D10029E2D12C600D4804700D4804708D
:1000C0000D4804800D4804700D4804600D4804601C
:1000D0000D4804600D48046030BD000070F700203A
:1000E00048E80100A8F700205C130020D42100207C
:1000F000191500201A150020221500201B150020BC
:100100002C15002030150020341500203815002053
:10011000C188090B09290CD2DFE801F00B09050998
:1001200009090909070024F017BE25F0C3B8042007
:10013000704705207047000070B5A9B100EB010CB5
:10014000BCF1300F10D8DFF8F8C00024012BBCF848
:1001500000500BD0022B1CBF102070BD012D08BF1A
:10016000ACF80040202845D2022070BD344B012657
:1001700004281B8904D0052808BF012902D128E0E2
:1001800001290DD02F4D0023C6185B1C55F82660A1
:10019000491E368822F8026BF6D1ACF800404CE0DC
:1001A000B3F5407F0CD02848ACF80040D0F8FC00F4
:1001B0000028ACBF4FF480704FF4007010803CE01A
:1001C000ACF80060ACF802404FF4407010800020A2
:1001D00070BDB3F5407F08BF012D04D01480ACF88A
:1001E0000040012070BD16800420ACF80000ACF87F
:1001F000024022E0DFF854C0921E0CEB400404F6EB
:10020000DE5011F0010F03D032F8023F20F8023F18
:100210004B0807D05588458032F8045F20F8045F0A
:100220005B1EF7D1A4EB0C0000F55E60C0F34F003D
:100230000144491E89B225F027FA002070BD000054
:10024000AAEF002070080020EC2C0020F87100209C
:100250002DE9FF5F0D4600981C4600F03F06FD4863
:10026000DDE90EC34FF0000801881746C14642463B
:10027000012908BF0280002F79D0A6F11E001128A5
:1002800075D3322E73D8F449E819895D88426ED847
:10029000F249B1F876B1ABF5806ABAF5CB7A13D0F2
:1002A000012E02D00D2E03D004E003285FD801E018
:1002B000032D5CD0B1F874B142F2107ADA4503D361
:1002C000A6B9092853D800E086B9098CA1F57F4A60
:1002D000BAF1FF0A0AD0A1F55851B039B1F57A7FC9
:1002E00004D3BCF1010F18BF092840D8DFF870A370
:1002F000012F1ED93AF81600284481B2D94801EBE3
:10030000410B00EB8B0BDBF808B01BF4003F40F017
:1003100081823944491E89B201EB410100EB810021
:10032000816811F0200F04D0806810F4003F00F0C5
:100330007182BCF1010F1ED0DFF82CB3BCF1020FAB
:100340009BF8C1009BF8C5209BF8C21078D0BCF187
:10035000030F1EBF102004B0BDE8F09F012818BF96
:10036000012A04D0012902D0012F40F21C8204B0DE
:100370000220BDE8F09FBD483AF81610012F50F852
:100380002600294400EB450089B217D0002F88BF12
:10039000B44D40F2988200BF01EB410C05EB8C0C90
:1003A000DCF8086016F0200F4BD0DCF808C01CF415
:1003B000800F1CBF228062803AD119E001EB41031B
:1003C000A84901EB83018B6813F0200F40F02282D3
:1003D0008B6803F00303032B07D0896811F4800FA7
:1003E00004BF0088208000F06E82228000F06BBA8B
:1003F000DFF868C2BCF830C65CEA030609D0BCF17D
:10040000010F08BF002B0BD0012B18BF022B07D008
:100410000EE0B0F802C0A4F800C0B0F800C005E0DB
:10042000B0F800C0A4F800C0B0F802C0A4F802C040
:10043000241D001D08F1020C1FFA8CF8891C18E01D
:100440001CE0DCF8086006F00306032E09D0DCF897
:1004500008C01CF4800F04BFB0F800C0A4F800C0AE
:1004600000D02280A41C801C08F1010C1FFA8CF81B
:10047000491C89B2B8458FD300F025BA01283FF452
:1004800076AF012A1CBF0129012F3FF470AF7448D9
:10049000A346002F30F8160028441FFA80FA3BD9F3
:1004A00070480AEB4A0100EB8100806810F0200FD1
:1004B0001ED06A48B0F83006002818BFBBF80010FC
:1004C000BBF8020006BFBBF8001000EB014101EBD6
:1004D0000041504617F08EFB002840F0B0810AF131
:1004E00002001FFA80FA0BF1040B08F102000FE082
:1004F000BBF80010504617F047FB002840F09F81E2
:100500000AF101001FFA80FA0BF1020B08F1010059
:100510001FFA80F8B845C3D351480021002F30F8A6
:10052000160000EB05081FFA88F084BFDFF838C119
:100530004C4A1ED900EB400302EB8303D3F808A01A
:100540000AF0030ABAF1010F07D1DCF858A10AF04A
:10055000030ABAF1020F00F05D819B6803F0030308
:10056000012B00F25781401C491C89B280B28F4296
:10057000E0D8022E1BD1E819411E292D0AD32929C2
:1005800008DCC5F1290034F81020A2F5A0609638E7
:1005900040F05581282D0AD3282908DCC5F1280010
:1005A00034F8101042F210708142C0F048812F4898
:1005B0001FFA88F1022F50F8260000EB450084BF97
:1005C0000022DFF8A0C06CD901EB41030CEB8303E0
:1005D000D3F8088018F0200F4AD0DFF88080B8F8F0
:1005E0003086B8F1000F03D0B9F1000F17D026E024
:1005F000B9F1000F0FD19B6813F4804F0BD0038823
:10060000B4F80280434504D1B0F8028023889845AD
:1006100001D04FF0010963880380238812E09B68B2
:1006200013F4804F0BD00388B4F80080434504D105
:10063000B0F802806388984501D04FF00109238803
:10064000038063884380921C241D001D92B2891C84
:1006500023E00000AAEF0020AA080408F871002097
:10066000D0070408E0080408EC2C00206C090020E6
:10067000B9F1000F0AD19B6813F4804F06D00388AC
:10068000B4F80080434518BF4FF0010934F8023B2D
:10069000521C20F8023B92B2491C89B2BA4293D351
:1006A00059E08B4B01EB410203EB8202D2F808C008
:1006B0001CF0200F27D087490388B1F8301689B184
:1006C00021888B4204D14388B4F802C0634569D0C5
:1006D000926812F4804F18BF4FF0010901806188C1
:1006E000418038E061888B4204D14388B4F800C06F
:1006F000634557D0926812F4804F18BF4FF001093C
:1007000001802188ECE7B0F80080B4F800C0E04533
:1007100005D1B0F802A0B4F802B0DA4542D0E04505
:1007200007D0A0F800C0926812F4804F18BF4FF0B5
:100730000109491C8AB230F802CF61888C450AD081
:10074000018002EB420003EB8000806810F4804FD0
:1007500018BF4FF00109032E1CBF042E172E03D122
:100760005D49012081F8C0005A48B0F816060128FA
:1007700018BF032816D100981D2813D80D2E11D0AC
:100780000B2E0FD0554830F81600284480B2C119FE
:10079000491E89B224F078FFB9F1010F02D1504807
:1007A00022F0DCFC8FE04F48DFF8249150F826005F
:1007B00000EB45083AF81600284480B200EB4001EF
:1007C00009EB8107B96811F0200F23D1218817F0B8
:1007D000DBF970BBB86800F0030001281AD83D4867
:1007E000B0F83C05012808BF092E05D0B86800F014
:1007F000030001280BD104E0262D18BF272DF5D1C9
:1008000008E0DBF8580100F00300022802D0022EB5
:1008100004D018E004B00420BDE8F09F292D02D0D8
:10082000282D07D00FE02188A1F5A060963806D1C9
:1008300009E004E0218842F21070814203D204B042
:100840000320BDE8F09FB8F80010208881423AD01C
:10085000A8F80000032E19BF042E172E01208BF8D4
:10086000C00003D00C2E08BF0D2D07D01948B0F8DA
:100870001606012818BF032825D106E01748008B6B
:100880000D3080B224F0E0FE1DE000981D281AD83B
:10089000B86810F4001F16D10D2E14D00B2E12D0F4
:1008A0000E4830F81600284480B224F0CDFE3AF805
:1008B0001600284400EB400009EB8000806810F42B
:1008C000804F7FF46CAF04B00020BDE8F09F0000C3
:1008D000E0080408F8710020EC2C00203608040819
:1008E00041E941E96C0900202DE9F0415748B0F891
:1008F000840110F0080F18BF0CF072F800F0BAF97C
:10090000534C544D0127608A40B9B5F8D60100F028
:100910000100A5F8D601678219F0EEFDA088DFF886
:1009200038810026012804BFA08A002825D1E0894B
:1009300018B34A48B0F82E166089814293BF2078D8
:10094000401C6081002818D1404604F039FEA0B94F
:10095000002025F0D3F8E189414829F0E3FA03F0BB
:100960007FFD012025F0E8F8B5F8D60140F0010040
:10097000A5F8D6016770A680A78260782178084321
:100980002ED1B5F8D8014FF41041814312BF267023
:1009900000F03F00A0701DD1324927707B204870C5
:1009A00019F0CCFF8920E081404604F009FE88B9A7
:1009B000E1892B4829F0B6FA03F052FD012025F019
:1009C000BBF8012025F09AF8B5F8D60140F00100F7
:1009D000A5F8D60160782178084308BFBDE8F0810A
:1009E000404604F0EDFD002818BFBDE8F0810EF090
:1009F0005DF810F0400F08BFBDE8F08100214046CF
:100A000004F012FD184806801849404604F0F6FC30
:100A100003F026FD002025F08FF803F021FD0120D2
:100A200025F06CF86078002818BF667020780028E0
:100A30001CBF2670A5F8D861B5F8D60100F00200F9
:100A4000A5F8D6016681BDE8F0810000EC2C0020FD
:100A5000D00C0020D8810020B8640240F87100203A
:100A6000F6F00020EAEF0020DC0C002000F040AFA0
:100A70002DE9F047784886B00024A0F8184603F026
:100A800003FE7548754EB0F80006062808BF34709E
:100A900003D07148B0F83A063070307802254FF034
:100AA000010901280BD025208DF800008DF8015098
:100AB0008DF802408DF8039068461BF03FFE8DF8DC
:100AC00004508DF80590DFF898A14FF400788DF868
:100AD0000640CDF800808DF80740694650460BF07F
:100AE00025FF0722092150460BF061FF8DF80450C5
:100AF0008DF805904FF480678DF8064000978DF8CB
:100B00000740694650460BF011FF07220A21504664
:100B10000BF04DFF50480121B0F80096B0F8025696
:100B2000084622F0CBFD0121082022F0C7FD01215B
:100B3000102022F0E7FD0121880522F0BFFD494881
:100B4000002D50F8290000904ED0B800012D52D051
:100B5000022D1CBFADF80840ADF8064052D000BFD2
:100B6000ADF804400C20404DADF80A00ADF80C4043
:100B70006946284629F002FBADF81040ADF8148014
:100B8000ADF81240ADF8164004A9284629F08FFAB6
:100B90000121284629F09CFA01228021284629F0CB
:100BA000A0FADFF8C880404604F048FC0021404627
:100BB00004F03AFC2E494FF000600860281D4860A0
:100BC000C1E90547CC610C624C628C62CC624C631B
:100BD0008C63404604F0FCFCA8892C4640F00400DD
:100BE000A8813078E8B916E04FF40050ADF808401D
:100BF000ADF80600B4E7ADF80640ADF80870ADF802
:100C00000400AFE74FF4C061ADF80640ADF808103E
:100C1000ADF80400A6E7012240F22551284629F04C
:100C200095FAA189204621F00801A181002240F215
:100C3000277129F08BFA2188204611F01F0F04BF7D
:100C400006B0BDE8F0870188818806B040F66F7174
:100C5000BDE8F04729F024BAF8710020F80C002014
:100C6000000002402C7A040800100140B8640240E1
:100C700004F200202DE9F0415A485B4E84B0B0F8F0
:100C80000056B0F8027630780024002808BF062D00
:100C90000BD15448B0F83A06012806D15148A0F8C3
:100CA0003A4640F21D3024F0CFFC3078012808BFCE
:100CB000062D10D103F0E8FC4C4822F04FFA4948C9
:100CC000B0F83A06012806D14648A0F83A4640F264
:100CD0001D3024F0B9FC7088454CA84235D003F093
:100CE000D3FC684622F026FDA189039811F4004F39
:100CF000404900EBC00202EB001051F8251014BF70
:100D000049008900B0FBF1F03B4A6FF0180CA2FBE0
:100D10000031490909010B0903FB0CF300EB8300C7
:100D2000A38913F4004F4FF0320314BF03EBC0004C
:100D300003EB0010A2FB00204FEA501014BF00F09C
:100D4000070000F00F0008432081B088B8421FD090
:100D500003F09AFC4CF6FF704EF6FF32EFB14FF6FF
:100D6000FF11012F2CD0022F33D0218A084020827E
:100D7000A089002100EA0208204629F0A9F9A4F878
:100D80000C800121204629F0A3F900BF03F07CFC70
:100D90007580B78004B0BDE8F081218A084040F436
:100DA00000502082A089002100EA0208204629F094
:100DB0008FF9A4F80C800121204629F089F9E5E794
:100DC000228A10402082A089084040F4A050A081CF
:100DD000DCE7228A10402082A089084040F4B0500D
:100DE000A081D3E7F8710020F80C002041E941E927
:100DF000001001402C7A04081F85EB510748D0F8F9
:100E0000580100F00300022808BF70470448054954
:100E1000B0F8560681F86B0070470000EC2C0020FB
:100E2000F871002010FE0020064800210164A0F89F
:100E30004610C0E90E11C0E90A11C0E908111038C6
:100E400001807047F80D002070B5094CA4F1100620
:100E5000A5697068291A074829F0C4FAC4E908018D
:100E6000D4E90A2310185941C4E90A01756070BD1C
:100E7000F80D002078F6002003490A784B8803809B
:100E80000020087010467047A02200201249D1F8B7
:100E9000582102F00302022A04D1104A928E12F065
:100EA000800F0AD008220280D1F8580100F0030018
:100EB000032804BF012070470CE091F87920012A33
:100EC00004BF0721018005D0496F0029CCBF012153
:100ED0000221018000207047EC2C0020F04A002005
:100EE00070B5184EDDE90445DDF818C0A6F84406D3
:100EF0003046BCF1010FA0F84616A0F84826A0F82D
:100F00004A36A0F84C46A0F8405618BF70BD40F2D3
:100F1000223024F099FB40F2233024F095FB4FF46B
:100F2000497024F091FB40F2253024F08DFB40F213
:100F3000263024F089FBBDE870404FF4487024F05F
:100F400083BB0000F87100200149A1F83E067047FC
:100F5000F87100200349A1F83C0640F21E3024F04D
:100F600073BB0000F8710020014840687047000022
:100F7000A0220020002A1ABF074B5B68704700BF01
:100F800033F811C0891C521E120420F802CB89B21A
:100F9000120CF5D170470000A8220020002A1ABFC9
:100FA000074B5B68704700BF33F811C0891C521EA5
:100FB000120420F802CB89B2120CF5D17047000060
:100FC000A82200202DE9F84F06464FF00009444CB6
:100FD00046F2025090461D460F46ADF800904FF085
:100FE0000A0A86421EBFA6F5C0403F38C02819D85D
:100FF0000A4623463146684624F002FDBDF800103B
:1010000019BBA16809B1022926D16168C90088F815
:101010000010616919B1002F08BF29604AD000682B
:10102000286047E042F23F0B5E451CBFA6F500502A
:10103000322888BF04203BD80A46234631466846FA
:1010400024F054FBBDF8001011B10846BDE8F88F3C
:10105000A16821B1022902D0ADF800A02AE06168A0
:10106000C90088F800105E4508BF006826D0002F30
:1010700008BF606922D01B4AF1B2781E80B252F8D4
:1010800021304FF0020C03EB40020CEB400C6344A8
:10109000D4F800C0BCF1030F12D0BCF1040F1AD079
:1010A000BCF1060F0CD0BCF1070F18BF0D2012D0F9
:1010B000ADF80000BDF80000BDE8F88F2860F9E742
:1010C000022901D01088F9E7282814BF2928C5F87B
:1010D0000090F7D1EEE71088198800EB0140EDE7AA
:1010E000B4F400206C090020002A1ABF074B5B688B
:1010F000704700BF30F802CB23F811C0891C521E84
:10110000120489B2120CF5D170470000A822002009
:10111000002A1ABF074B5B68704700BF30F802CB4C
:1011200023F811C0891C521E120489B2120CF5D189
:1011300070470000A82200202DE9FF4F80460020C4
:1011400083B00546ADF8000006468146F84F46F2EA
:10115000025092461C464FF00B0B80451EBFA8F56F
:10116000C0403F38C02800F2CF803B464146684629
:10117000049A24F045FC0546BDF8000000281CBF79
:1011800007B0BDE8F08FB86828B1012818BFADF8E6
:1011900000B040F0E481E74890F8C11001291FBF7A
:1011A00090F8C510012990F8C200012800F0E480F1
:1011B0007868C0B2B0EBDA0FC0F0DA8000F2E180FC
:1011C000DD48A8F5C041A5EB0000A0F104004FEAFE
:1011D000A00060391BD1E4B2214680B216F06CFC4D
:1011E000ADF80000002854D1012C18BF032C33D0D7
:1011F000042C18BF062C2FD0082C18BF092C2BD07C
:101200000A2C18BF082027D007B0BDE8F08F396836
:10121000891E062948D2DFE801F003213403213476
:10122000E4B2214680B216F047FCADF80000A8F504
:10123000C04098380DD10F2C18BF102C03D01F2C94
:1012400018BF202C05D10520ADF80000BB4821F0C7
:1012500085FFBDF80000E0B92C601AE0A4B2214679
:1012600080B216F029FCA8F5C041ADF800005A394B
:1012700004BF042C052001D058B9EDE7ADF80000FB
:1012800007E0214680B216F017FCADF800000028F8
:10129000E2D0AB48B0F81606022812BF0328F8695E
:1012A000012840F05C8101E00D20E7E77868A44C5C
:1012B000022828460FD80DF043FB296834F8102087
:1012C00089B28A4200F04B8124F8101080B224F0D9
:1012D000BBF900F044B90DF033FB04EB400234F8E5
:1012E0001010538801EB034329688B4200F03781CB
:1012F00024F810102968090C5180411C89B280B271
:1013000024F0C2F900F02BB942F23F0080451CBF27
:10131000A8F50050322884BF0420ADF8000000F288
:101320001E813B4641466846049A24F0DFF9BDF829
:10133000000000281CBF07B0BDE8F08FB86820B1DE
:10134000012818BFADF800B075D17A4890F8C110E7
:1013500001291CBF90F8C51001290DD0754890F8DF
:10136000C200012808D07868C0B2B0EBDA0F07D20B
:1013700007B00E20BDE8F08F07B00120BDE8F08F68
:1013800003D907B00F20BDE8F08F049808F0FF05DF
:10139000401E86B26A48B0F83C05012808BF092DF6
:1013A00011D06848022101EB460130F81500022DEA
:1013B00000EB0609644850F8250000EB460800EBF6
:1013C000010B08D019E0262E14BF272E0B20E8D1E0
:1013D00007B0BDE8F08F292E02D0282E05D00CE0F2
:1013E000A4F5A060963804D107E042F21070844260
:1013F00003D207B00520BDE8F08F396820B20FFA9C
:1014000080FA032909D0200C042924D0062913D0FE
:10141000072918BF0D203DD132E081B21FFA89F0B3
:1014200016F0B2FBA8BBB8F90000504518BFA8F8E9
:1014300000A040D158E051E0A4B221461FFA89F043
:1014400016F0A2FB28BBB8F80000A04218BFA8F80D
:10145000004030D148E021461FFA89F016F0CAFB5F
:10146000B8B9B8F90010200C00B2514507BFBBF95C
:1014700000108142A8F800A0ABF800001BD133E0B7
:10148000A1B28246019121461FFA89F016F0B2FB03
:1014900018B10520ADF800000DE0B8F80010019873
:1014A000814204BFBBF8000050451DD00198A8F848
:1014B0000000ABF800A00120032D19BF042D172D4B
:1014C0001C4981F8C00009D00C2D08BF0D2E05D194
:1014D0001E48008B0D3080B224F0B6F8F868012861
:1014E00004BF1B4821F03AFE1548B0F81606012843
:1014F00018BF032833D1174909EB490001EB8000DD
:10150000806810F4001F2AD10D2D28D00B2D1CBF90
:10151000312D322D23D0786802280C4830F8150080
:10152000304419D0411C89B280B224F0ADF816E0E5
:10153000B4F40020EC2C0020D0F2002098E998E9C7
:10154000F8710020D00704086C0900203608040850
:1015500041E941E9E008040880B224F075F8BDF8DB
:10156000000007B0BDE8F08F08B500230A46ADF8CB
:1015700000301749174B46F2025C60451EBFA0F5CC
:10158000C04CACF13F0CBCF1C00F08D80146684616
:1015900024F036FA0146BDF80000B0B114E042F282
:1015A0003F0C60451CBFA0F5005CBCF1320F84BF4E
:1015B0000420ADF8000008D80146684624F096F8EB
:1015C0000146BDF8000000B10149084608BD000011
:1015D00010000020B4F400202DE9F0075B4A5C49BC
:1015E0001046B2F8AEC0B0F8AC005A4BBCF1010FD7
:1015F00008BF4000B1FBF0F083FB0010C110A1EB6D
:10160000E074B2F9F600B2F820C000EB80004000B0
:1016100083FB0010C110A1EBE0754C484D49142626
:10162000B0F9FA00ACF5585700EB8000400081FBA0
:101630000010C110A1EBE0704749B03F06D0178DF4
:10164000A7F5B247D83FB7F57A7F04D3A1F8EA608F
:101650004FF0C80C2AE03D4842F6E06A1026B0F888
:101660001601ACF55C5900EB80004FF00A080AEB5C
:101670004000B9F115093FD1D1F8FCC0BCF1000F11
:101680003AD0642F3DBF00F5FA40A1F8EA604FF070
:10169000A00C44F6206C22BF6044A1F8EA804FF011
:1016A000640C83FB0060C610A6EBE070A1F8E800B4
:1016B000C5EB4401091A091F491009B2B1EB640FC7
:1016C000C4BFA1EB640109B2244D2E8861F30C065E
:1016D0002E80B2F81C1101EB81014900A3FB01210E
:1016E00004EB0C02101A00EBD1001D49001F096821
:1016F0000880BDE8F0077047DFF868C09CF801C0BB
:10170000BCF1010F08BF4FF0070C06D0BCF1020F6F
:101710000CBF4FF0080C4FF0060C642F0AD20CEBF4
:101720004C07C7EBCC1C00EB4C10A1F8EA604FF063
:10173000A00CB6E740F271260CFB06FC00EB8C0017
:10174000A1F8EA804FF0640CABE70000F8710020CC
:1017500000CA9A3B1F85EB5130230020160300205E
:10176000F4010020EC02002070B4DFF8B4C02D4A70
:101770006046BCF8AE30B0F8AC102B48012B08BF67
:101780004900B2FBF1F180FB0121CA10A2EBE1712B
:10179000BCF9F62047F2305402EB8202520080FB83
:1017A0000232D310A3EBE272BCF91631204E03EBE8
:1017B000830304EB430380FB0343DC10A4EBE373DC
:1017C0001A4CC2EB4102D21AA4F8E830BCF81A5104
:1017D000121FB6FBF5F5A0FB0565ED085210A4F845
:1017E000EA50B2EB610FC8BFA2EB6102114C258831
:1017F00062F30C05258022880F4C24682280BCF8F7
:101800001C21C91A02EB82025200A0FB022001EB4C
:10181000D0000A49001F0968088070BC70470000AA
:10182000F871002000CA9A3B1F85EB51302300203D
:1018300040420F0098020020F8010020F40100202F
:10184000F0B4334B334A1846B3F8AEC0B0F8AC101E
:101850003148BCF1010F08BF4900B2FBF1F180FB38
:101860000121CA10A2EBE171B3F9F6202C4D02EB75
:101870008202520080FB02C24FEAE20CACEBE2743F
:10188000B3F916214AF2104C02EB82020CEB420231
:1018900080FB02C24FEAE20CACEBE27C1F4AA2F8EA
:1018A000E8C02F880226B6EB973F0CBF0A27102707
:1018B000A2F8EA70C4EB4102A2EB0C02121F521014
:1018C000B2EB610FC8BFA2EB6102164C278862F32E
:1018D0000C0727802288144C246822802A88B6EBC3
:1018E000923F0CBFB4224FF49072B3F81C311144F4
:1018F00003EB83035B00A0FB0330A1EB0C0101EBC6
:10190000D0000A49001F09680880F0BC7047000039
:10191000F871002000CA9A3B1F85EB51302300204C
:10192000E801002028030020F8010020F401002035
:101930002349244B0846B1F8AEC0B0F8AC00224AA7
:10194000BCF1010F08BF4000B3FBF0F082FB003098
:10195000C310A3EBE070B1F9F630B1F9161103EB47
:1019600083035B0082FB03C34FEAE30CACEBE3733E
:1019700001EB810145F6D81C0CEB410182FB0121F2
:10198000CA10A2EBE171114AC3EB4003A2F8E810C0
:10199000591A091F4910B1EB600FC8BFA1EB6001D4
:1019A000C1F30C000A4940F4005009680880094955
:1019B0001420A2F8EA00096800200880704700009F
:1019C000F871002000CA9A3B1F85EB51302300209C
:1019D000F8010020F00100202B4B30B41846B3F87A
:1019E000AEC0B0F8AC10294A2948BCF1010F08BFBD
:1019F0004900B2FBF1F180FB0121CA10A2EBE171B9
:101A0000B3F9F6204CF6087402EB8202520080FB18
:101A100002C24FEAE20CACEBE272B3F916C1C2EBC0
:101A200041020CEB8C0C04EB4C0C80FB0C4C4FEA91
:101A3000EC04A4EBEC7C174CA2EB0C021025121F5B
:101A4000A4F8E8C05210A4F8EA50B2EB610FC8BF86
:101A5000A2EB6102104C258862F30C0525802288D8
:101A60000E4C24682280B3F81C21A1EB0C0102EB80
:101A700082025200A0FB022001EBD00008499C30FA
:101A80000968088030BC7047F871002000CA9A3B92
:101A90001F85EB5130230020C2020020F8010020F6
:101AA000F401002010B50B480B494FF47A748460A0
:101AB000B1F8DE156143C1600168884707480649EF
:101AC00022468460B1F8E2155143C1600168BDE867
:101AD00010400847180D0020F8710020480D002024
:101AE000114810B5C16821F40051C1600F48104B76
:101AF00000214171C3E902110E4901240968C1F3B3
:101B00000011C1700171583000210470C0E9041146
:101B1000C0E90211C0E90611C0E9081120F042FE37
:101B2000054880F86B4010BDD0F2002080F5002001
:101B300078F60020840D0020EC2C00205D4AD2F8BD
:101B40004801C0F380335C48D0F8CC1163F3000146
:101B5000C0F8CC11D2F84811C1F34033D0F8CC1101
:101B600063F34101C0F8CC11D2F84811C1F380737E
:101B7000D0F8CC1163F38201C0F8CC114F49B1F811
:101B80004E16022918BF704710B44D49CB884D49F5
:101B9000C3F1010C0C886CF304140C80C3F3400CEB
:101BA000CCF10104B1F800C064F3451CA1F800C0F9
:101BB000C3F38003C3F1010C0B886CF386130B8015
:101BC000D2F84831C3F3C03C0B886CF3C7130B80C9
:101BD000D2F84831C3F3004C0B886CF308230B8018
:101BE000D2F84C31C3F3400C0B886CF349230B80C3
:101BF00092F8D5300A8863F38A220A800A8842F470
:101C000000620A800A8842F480520A800A88C2F37D
:101C10000013D0F8CC2163F31452C0F8CC210A8809
:101C2000C2F34013D0F8CC2163F35552C0F8CC2155
:101C30000A88C2F38013D0F8CC2163F39652C0F81F
:101C4000CC210A88C2F3C013D0F8CC2163F3D75259
:101C5000C0F8CC210A88C2F30023D0F8CC2163F36A
:101C60001862C0F8CC210A88C2F34023D0F8CC21F6
:101C700063F35962C0F8CC210A88C2F38023D0F8FC
:101C8000CC2163F39A62C0F8CC210A88C2F3C02346
:101C9000D0F8CC2163F3DB62C0F8CC210988C1F312
:101CA0000032D0F8CC1162F31C71C0F8CC1110BC1A
:101CB00070470000EC2C0020D0F20020F8710020CA
:101CC000D8810020A00D00201C48B0F84E06022844
